:100000000C943E000C945B000C945B000C945B0021
:100010000C945B000C945B000C945B000C945B00F4
:100020000C945B000C945B000C945B000C945B00E4
:100030000C945B000C945B000C945B000C945B00D4
:100040000C945B000C945B000C945D000C945B00C2
:100050000C945B000C945B000C945B000C945B00B4
:100060000C945B000C945B000C945B000C945B00A4
:100070000C945B000C945B000C945B0011241FBE7D
:10008000CFEFD4E0DEBFCDBF11E0A0E0B1E0E2E011
:10009000FAE002C005900D92AA32B107D9F721E02B
:1000A000AAE2B1E001C01D92A735B207E1F70E94B4
:1000B0001D020C94FF040C9400000F920FB60F92D7
:1000C0001F9211248F929F92AF92BF92CF92DF9294
:1000D000EF92FF922F933F934F935F936F937F9392
:1000E0008F939F93AF93BF93EF93FF93CF93DF9340
:1000F000CDB7DEB72897DEBFCDBF2091ED00809150
:10010000EC00807F8093ED008091EE0085FF5CC065
:100110008091EF008F70AE014F5F5F4FFA019E2F0D
:10012000941B98170CF475C09091F3008090F20026
:10013000C090F1003091F00040912C0150912D01C0
:1001400070E060E0892F90E0B0E0A0E0E5E1880F8A
:10015000991FAA1FBB1FEA95D1F7912CB12CA12C96
:10016000FDE0880C991CAA1CBB1CFA95D1F7880DE0
:10017000991DAA1DBB1DE0E2CE9E600111240D2C2D
:10018000000CEE08FF088C0D9D1DAE1DBF1D3695A1
:1001900036953695830F911DA11DB11D481759073E
:1001A0006A077B0771F4898190E0982F88273A814C
:1001B000830F911D909338018093370181E08093E4
:1001C0002E0188E98093EF001092EE002093ED005D
:1001D00028960FB6F894DEBF0FBECDBFDF91CF914A
:1001E000FF91EF91BF91AF919F918F917F916F910F
:1001F0005F914F913F912F91FF90EF90DF90CF90C3
:10020000BF90AF909F908F901F900F900FBE0F9058
:1002100018959091FA00919382CF0F931F938B01C1
:100220009C011092ED008091DC0080FDFCCF1092CB
:10023000EE00D901C80155E1B595A7959795879529
:100240005A95D1F78093F300D901C8016DE0B595B7
:10025000A795979587956A95D1F78093F200D90174
:10026000C80175E0B595A795979587957A95D1F7CB
:100270008093F100E3E0000F111F221F331FEA9566
:10028000D1F70093F0002FE231E0F9018E2F821BAD
:10029000841794F040654093EF008091EE0086FD56
:1002A00004C08091EE0080FFF8CF1092EF00109212
:1002B000EE001F910F91089581918093FA00E6CF8F
:1002C000CF93DF939C012F3987E038074CF5E0E0AE
:1002D000F1E090E080E041915191EC0101964217EC
:1002E0005307DCF06081718162177307B4F4241B3B
:1002F000350BEAE0E29FC001E39F900D1124641BDF
:10030000750B0E94D704EC9FC001ED9F900D112446
:10031000860F971FDF91CF91089584319105D9F60B
:1003200090E080E0F7CF89E184B982E887B988E07E
:100330008AB984E085B990E398B990E89BB991E0D7
:100340009093D8001092E50096E09093E20080939D
:10035000E30083E18093E40080E08093ED0010925D
:10036000EF001092EE00805F8036B9F780E1809355
:10037000ED0082E08093DE0080EA8093DB00109243
:10038000F7001092F6001092F5001092F40088E940
:100390008093EF008091D80082608093D800089508
:1003A00023B12695269531E02327822F817090E096
:1003B000359B0296349B04964F9B08964AE0489FD3
:1003C0009001499F300D1124245D3E4F30932D0143
:1003D00020932C01089528E030E040E850E090E0C0
:1003E000BC0164237523672B89F02C9A65E06A951C
:1003F000F1F70000479A65E06A95F1F70000479829
:10040000569547952150310959F708952C98EECF0C
:1004100028E030E090E880E045E04A95F1F7000000
:10042000479A45E04A95F1F700003699890F4798B9
:1004300096952150310981F70895CF93DF93CDB779
:10044000DEB7C350D1400FB6F894DEBF0FBECDBFAC
:100450000E9493010E94D00190E080E0FC01EE0F29
:10046000FF1FE35CFE4F1182108201968C309105D4
:10047000A9F710923A011092390110923C011092A2
:100480003B01789488E19BE00FB6F894A89580939F
:1004900060000FBE90936000CD5FDE4F1882C350A6
:1004A000D14010E022242394312C81EC482E512C91
:1004B0004C0E5D1E20E1420E511C91ECC92ED12C38
:1004C000CC0EDD1E30E2C30ED11CA8952B9881E026
:1004D0000E94EB0181E00E94EB01809155010E9496
:1004E000EB01809156010E94EB0180E00E94EB013C
:1004F00080E00E94EB0180E00E94EB012B9A87ECE8
:1005000090E00197F1F700C000002B9880E10E9475
:10051000EB012B9AAFE3BCE91197F1F700C00000A3
:100520002B9880E30E94EB012B9AEFE0F7E23197E2
:10053000F1F700C000002B9884E00E94EB012C9A98
:100540004E01F1EE8F0E911C740129E1E20EF11CB7
:1005500054010E940802D4018D934D01AE15BF05D0
:10056000C1F72B9AE7ECF0E03197F1F700C00000FB
:100570002B9888E00E94EB012C9A3E01FAEF6F0E57
:10058000711C430125E0820E911C73010E94080238
:10059000D3018D933D01A815B905C1F72B9AE7EC5E
:1005A000F0E03197F1F700C00000812F012E000C20
:1005B000990BE12FEE0FFF0B21E030E02C0F3D1FD8
:1005C000E20FF31F50E040E0DA01B595A795AA0DC0
:1005D000BB1D11960C911197602F6F7070E0762FF4
:1005E00066272C91620F711D9B01220F331F260F6E
:1005F000371F359527953183208312962C9160E122
:10060000269F9001112402950F70200F311DB90112
:10061000660F771F260F371F35952795318B208B57
:100620004A5F5F4FB0964432510571F6D70111967B
:100630002C911197FC01EE0FFF1F41EC50E04C0F85
:100640005D1FE40FF51F422F4F7050E0542F4427D9
:100650003C91430F511D51834083FC013896EE0FAE
:10066000FF1F81EC90E08C0F9D1FE80FF91F129681
:100670008C9190E1899FA0011124822F82958F7027
:10068000840F952F911D918380831F5F183008F48C
:10069000D9C0CD5FDE4F0881C350D1400F5F043019
:1006A00008F000E0CD5FDE4F0883C350D140409199
:1006B000550150915601DE01119690E080E0B12C79
:1006C0007D01912C812C70E060E0F7012191319146
:1006D0007F0137FF02C02F5F3F4F35952795620F8F
:1006E000731FFFEF8F1A9F0A18E08116910469F7B4
:1006F00075956795759567959C01220F331FF901D4
:10070000E35CFE4F7183608360817181161617066A
:1007100094F4608171816A5F7F4F71836083009779
:1007200051F460913D0170913E01625071097093E6
:100730003E0160933D01F901E35CFE4F60817181F0
:100740006938734114F011821082F901E35CFE4FA5
:10075000608171811616170614F4BB24B394235CD0
:100760003E4FF901E080F1806091370170913801CE
:100770009101082E02C0220F331F0A94E2F76E1572
:100780007F0508F053C06091370170913801672BE5
:1007900009F44CC0422B532B019650968C30910596
:1007A00009F08ECF5093560140935501FE01EF534F
:1007B000FF4F90E080E021913191820F931F4E1600
:1007C0005F06C9F743E0959587954A95E1F79093C1
:1007D0003A0180933901E1ECF0E0EC0FFD1F7096D7
:1007E00090E080E021913191820F931FCE16DF06B9
:1007F000C9F733E0959587953A95E1F790933C01D9
:1008000080933B015B98419A81E090E020915501F3
:1008100030915601232B11F490E080E030E08023EA
:100820009323892B41F05B9A10E00CC02095309502
:1008300042235323B1CFB110A1C04198102F1170A2
:1008400000FDF1CF80912A0190912B01803291051A
:100850000CF0A1C0019690932B0180932A01809106
:100860002E01882309F49CC010922E0110922B01B6
:1008700010922A01B12CA12CF12CE12CAFE2B1E0B5
:1008800090E080E0FC01EA0DFB1DEE0FFF1FE35C32
:10089000FE4F208131813C932081318111962C9330
:1008A0001197019612968430910561F780912C0181
:1008B00090912D0101968E0D9F1D9C0150E040E00E
:1008C000C150DF4F288339834A835B83CF5FD04099
:1008D00048E0C150DF4F688179818A819B81CF5F79
:1008E000D0400E940D018FEC97E00197F1F700C016
:1008F00000009FEFE91AF90AA4E0AA0EB11CB3E0C8
:10090000EB16F10409F0BACF8091390190913A01C8
:100910000E94600180932F0180913B0190913C01E6
:100920000E946001809330011092360110923501CF
:100930001092340110923301109232011092310161
:1009400080912C0190912D0104969C0150E040E093
:10095000C150DF4F288339834A835B83CF5FD04008
:1009600048E0C150DF4F688179818A819B81CF5FE8
:10097000D0400E940D010E94D001A7CD80912A0194
:1009800090912B01809709F04FCF102F117000FF2D
:1009900059CF419849CF10923801109237015FCF5B
:1009A0008FE39FE10197F1F700C00000E4CF97FBD0
:1009B000072E16F4009407D077FD09D00E94EB04AF
:1009C00007FC05D03EF4909581959F4F0895709552
:1009D00061957F4F0895AA1BBB1B51E107C0AA1F59
:1009E000BB1FA617B70710F0A61BB70B881F991FD0
:1009F0005A95A9F780959095BC01CD010895F8947A
:020A0000FFCF26
:100A0200C3079A075407E3063F066A0574047A038C
:100A12009C02EC016001F900B0007E005B00410025
:0A0A2200300024001C001400100036
:00000001FF
